:020000040800F2
:100000007806002049020008510200085302000847
:1000100055020008570200085902000800000000BD
:100020000000000000000000000000005B0200086B
:100030005D020008000000005F0200086102000885
:1000400063020008630200086302000863020008FC
:1000500063020008630200086302000863020008EC
:1000600063020008630200086302000863020008DC
:1000700063020008630200086302000863020008CC
:100080006302000863020008630200080000000029
:1000900000000000000000000000000063020008F3
:1000A000630200086302000863020008630200089C
:1000B000630200086302000863020008630200088C
:1000C000630200086302000863020008630200087C
:1000D00063020008630200086302000800000000D9
:1000E00063020008630200086302000800000000C9
:1000F0000000000000000000000000006302000893
:1001000000000000630200086302000863020008A8
:1001100000000000000000000000000000000000DF
:10012000630200086302000863020008630200081B
:100130006302000800000000000000000000000052
:100140000000000000000000000000006302000842
:1001500063020008630200086302000863020008EB
:1001600063020008630200080000000000000000B5
:10017000000000000000000000000000000000007F
:100180000000000063020008000000000000000002
:10019000630200086302000800F002F800F044F86F
:1001A00014A696E8000CB244B344DA4501D100F03D
:1001B0003BF8BAE80F000FA696E83000A5EB04055F
:1001C00004EB0607AAEB0704A7F101074FEA151590
:1001D0004FEA3414A4F10104AC4201D300F024F836
:1001E00013F0010F18BFFB1A43F0010300F001F8F0
:1001F000DBE718478C0200009C02000070470000FB
:100200000023002400250026103A28BF78C1FBD81F
:10021000520728BF30C148BF0B6070471FB500F0C0
:1002200022F91FBD10B510BD00F031F81146FFF7DF
:10023000F5FF00F0FFF800F04FF803B4FFF7F2FF0E
:1002400003BC00F057F80000094880470948004700
:10025000FEE7FEE7FEE7FEE7FEE7FEE7FEE7FEE776
:10026000FEE7FEE704480549054A064B70470000D3
:10027000C9030008990100087800002078060020D2
:10028000780200207802002070477047704775465A
:1002900000F02CF8AE4605006946534620F00700F2
:1002A000854618B020B5FFF7DDFFBDE820404FF0D0
:1002B00000064FF000074FF000084FF0000BAC466F
:1002C000ACE8C009ACE8C009ACE8C009ACE8C009BA
:1002D00021F007018D46704710B50446AFF300804A
:1002E0002046BDE81040FFF7A8BF00000048704757
:1002F0000000002001491820ABBEFEE726000200E6
:10030000704700002DE9F04F00F1200A00234FF064
:100310000F0E4FF003084FF00109002600270FE0F1
:10032000C2688C6802EA0C0204FA03F52A43C26030
:1003300001370436102F03F1020308BFBDE8F08F28
:100340000C68FC40E407F3D04C6844F01004122C15
:1003500012D16FF0030202EA57045AF804B006F013
:100360001C02D1F810C00EFA02F52BEA05050CFAB2
:1003700002F22A434AF8042002684D6808FA03F49E
:100380006FEA040CA24305F003049C402243122DA3
:100390000260C5D809FA05F212F0061FC0D08268C3
:1003A000CC6802EA0C029C4022438260426809FA4F
:1003B00003F4A243C5F300149C4022434260AFE71C
:1003C00042695140416170474EF68850CEF20000BC
:1003D00001684FF0000C41F47001016043F6000128
:1003E000C4F202010A6842F001020A60C1F808C0C2
:1003F0000B684FF6FF72CFF6F6621A400A6043F2BE
:100400001002C2F200424A600A6822F480220A60A6
:10041000C1F80CC04FF0006140F8801C704700002C
:1004200043F63000C4F20200016841F001010160AE
:100430007047000040F260050024C2F20005112060
:1004400020210022C4F20204C5E90010AA60FFF7CF
:10045000E7FF20462946FFF755FF00BF2046202131
:10046000FFF7AEFFFAE7F1EE100A4FF6FF71C0F2A8
:10047000C03120EA010040F04070E1EE100A704700
:100480009004000800000020780600000002000828
:0400000508000249A4
:00000001FF
