:020000040800F2
:10000000B80600206D02000875020008770200089B
:10001000790200087B0200087D0200080000000051
:100020000000000000000000000000007F02000847
:100030008102000800000000830200088502000819
:10004000870200088702000887020008870200086C
:10005000870200088702000887020008870200085C
:10006000870200088702000887020008870200084C
:10007000870200088702000887020008870200083C
:1000800087020008870200088702000800000000BD
:1000900000000000000000000000000087020008CF
:1000A000870200088702000887020008870200080C
:1000B00087020008870200088702000887020008FC
:1000C00087020008870200088702000887020008EC
:1000D000870200088702000887020008000000006D
:1000E000870200088702000887020008000000005D
:1000F000000000000000000000000000870200086F
:10010000000000008702000887020008870200083C
:1001100000000000000000000000000000000000DF
:10012000870200088702000887020008870200088B
:10013000870200080000000000000000000000002E
:10014000000000000000000000000000870200081E
:10015000870200088702000887020008870200085B
:10016000870200088702000800000000000000006D
:10017000000000000000000000000000000000007F
:1001800000000000870200080000000000000000DE
:10019000870200088702000800F002F800F057F814
:1001A00014A696E8000CB244B344DA4501D100F03D
:1001B0004EF8BAE80F000FA696E83000A5EB04054C
:1001C00004EB0607AAEB0704A7F101074FEA151590
:1001D0004FEA3414A4F10104AC4201D300F037F823
:1001E00013F0010F18BFFB1A43F0010300F001F8F0
:1001F000DBE71847BC050000DC050000103A24BF0F
:1002000078C878C1FAD8520724BF30C830C144BF7B
:1002100004680C6070470000704700000023002451
:1002200000250026103A28BF78C1FBD8520728BF06
:1002300030C148BF0B607047642900F07780002010
:1002400070471FB500F0A6FA1FBD10B510BD00F035
:10025000E7F91146FFF7F5FF00F084FA00F005FA20
:1002600003B4FFF7F2FF03BC00F00CFA0948804723
:1002700009480047FEE7FEE7FEE7FEE7FEE7FEE788
:10028000FEE7FEE7FEE7FEE704480549054A064BA0
:10029000704700009506000899010008B80000208A
:1002A000B8060020B8020020B80200200FB40449AC
:1002B00010B503AA029800F077F910BC5DF814FBA2
:1002C000000000202DE9F0410E4604460020206287
:1002D0002046E168884730B3252805D0D4E90121BC
:1002E0009047206A401CF2E7E168204600278847D3
:1002F000050018D0A5F14100192802D820354FF487
:1003000000673246294620462760FFF795FF40B137
:10031000012804D0F61D26F007060836D8E7361D5A
:10032000D6E72846DAE7206ABDE8F0812DE9F041FA
:100330000646002410687529314616A510D0AFF383
:100340000080002802DA404213A507E031688A07DE
:1003500001D512A502E0490704D511A5012401E049
:10036000AFF3008000210A2206F1240709E0B0FB68
:10037000F2FCB0FBF2F302FB1C003030785418465C
:10038000491C0028F3D123462A463046BDE8F041F7
:1003900000F0B1B8000000002D0000002B000000AC
:1003A000200000002DE9FF5F1D464FF0FF3B914606
:1003B0004FF000085F46D5E90146A96901987F1C06
:1003C0008847296A824688470028F6D1BAF1FF3F5C
:1003D0000CD0002E24F4C06419DD600614D5BAF1E7
:1003E0002B0F09D0BAF12D0F0ED103E0584604B0FF
:1003F000BDE8F09F44F48064A96901987F1C884798
:10040000761E8246002E02DDBAF1300F03D0B9F11C
:10041000000F26D032E0A969761E01987F1C44F4B3
:1004200000748847002E824605DDBAF1780F06D0A9
:10043000BAF1580F03D0B9F1000F10D01EE0B9F196
:10044000000F02D0B9F1100F18D1A969761E0198DA
:100450007F1C24F4007488478246102002E00820A4
:1004600000E00A20814609E0A96908FB0908761E18
:1004700001987F1C44F4007488478246002E05DDF5
:100480004946504600F0A2F80028EDDAE9690198E3
:100490008847A00502D46FF00100A8E7E00725D146
:1004A000600613D5600502D5C8F1000000E04046A3
:1004B00029680A1D2A600968220501D5087015E01F
:1004C000220701D5088011E008600FE02868011DAF
:1004D00029600068210502D580F8008006E0210728
:1004E00002D5A0F8008001E0C0F8008038467EE721
:1004F0007047704770472DE9F0470D469946924680
:10050000044600F124080168880604D5E06921F05A
:100510001001216000E00120A84201DD471B00E03E
:100520000027A1697A1902EB0900081AA061207856
:10053000C00602D42046AFF30080002608E0D4E9CC
:1005400001211AF806009047206A401C761C2062A0
:100550004E45F4DB2078C0060AD52046AFF3008074
:1005600006E0D4E9012130209047206A401C206237
:10057000381EA7F10107F4DC07E0D4E9012118F8DF
:1005800005009047206A401C2062281EA5F1010545
:10059000F3DC2046AFF300802078000602D502206D
:1005A000BDE8F0870120FBE7074B70B50D467B44A3
:1005B00000F023F80446284600F016F810B14FF07A
:1005C000FF3070BD204670BD9F0100003A2800D268
:1005D000303820F02002412A01D3A2F137008842AE
:1005E00001D34FF0FF307047007B00F08000704770
:1005F00001694A1C02610878704700B58FB0CDE9E7
:1006000001310021059105497944CDE903101146D6
:100610006846FFF757FE0FB000BD0000E5FFFFFF83
:10062000754600F02BF8AE4605006946534620F0AB
:100630000700854618B020B5FFF726FEBDE820402C
:100640004FF000064FF000074FF000084FF0000B8E
:10065000AC46ACE8C009ACE8C009ACE8C009ACE8FD
:10066000C00921F007018D46704710B50446AFF36D
:1006700000802046BDE81040FFF7F2BD00487047FB
:100680005800002001491820ABBEFEE726000200FA
:10069000704700004EF68850CEF2000001684FF01F
:1006A000000C41F47001016043F60001C4F2020144
:1006B0000A6842F001020A60C1F808C00B684FF6F0
:1006C000FF72CFF6F6621A400A6043F21002C2F2DD
:1006D00000424A600A6822F480220A60C1F80CC015
:1006E0004FF0006140F8801C7047000043F6300076
:1006F000C4F20200016941F400310161016841F076
:10070000010101600020C4F20200016821F0F00143
:100710000160016841F0A0010160016A21F47F419C
:100720000162016A41F4EE41016244F20C40C4F2FC
:10073000000040F2836140F8041C0C21016000219C
:1007400041608160016841F4005101607047000020
:1007500044F20041C4F200010A681206FCD5C2B29C
:100760004A607047FFF7C2FF02A0FFF79FFD00BF7E
:10077000FEE700BF48656C6C6F2074686572652089
:1007800066726F6D206D61696E2066756E63746947
:100790006F6E0000F1EE100A4FF6FF71C0F2C0312B
:1007A00020EA010040F04070E1EE100A70470000BE
:1007B000D00700080000002054000000FC010008E1
:1007C0002408000858000020600600001C020008F1
:1007D0000100000000000000000000000000000018
:1007E0000000000000000000000000000000000009
:1007F00000000000000000000000000000000000F9
:1008000000000000000000000000000000000000E8
:1008100000000000000000000000000000000000D8
:0408200000000000D4
:040000050800026D80
:00000001FF
